
Source Code
000001:
000002:    4120                        CHECKGUESS                                                         #  Player entered 5 digits, check against signal
000003:
000004:                                                                                                 #  better idea - check against the middle row, display correct/almost values
000005:                                                                                                 #  so will need to copy guess down to middle row FIRST
000006:                                                                                                 #  recalculate any time the guess displayed in middle row changes
000007:
000008:
000009:    4120           35236                          CA       DEC11                                 #  Load 11 into A
000010:    4121           54112                          TS       CHECK_IDX                             #  Store as segment to check guess against signal
000011:
000012:    4122           35230                          CA       DEC5                                  #  Load 5 into A
000013:    4123           54103                          TS       END_ID                                #  Store to check against digit check index
000014:
000015:    4124           30007                          CA       ZERO                                  #  Load 0 into A
000016:    4125           54074                          TS       CUR_ID                                #  Index to compare values
000017:    4126           54122                          TS       RIGHT_TMP                             #  Number correct in right spot
000018:    4127           54123                          TS       ALMOST_TMP                            #  Number correct in wrong spot
000019:
000020:    4130                        CHK_LOOP
000021:
000022:    4130           50074                          INDEX    CUR_ID                                #  Load current index value
000023:    4131           30144                          CA       CHK_GRID                              #  Get player's guess in this slot
000024:    4132           54125                          TS       GUESS_NOW                             #  Store in ram
000025:
000026:    4133           50074                          INDEX    CUR_ID                                #  Load index again
000027:    4134           30113                          CA       SIGNAL                                #  Get signal num in this slot
000028:    4135           54126                          TS       SIG_NOW                               #  Store in ram
000029:
000030:
000031:    4136           00006                          EXTEND
000032:    4137           60125                          SU       GUESS_NOW                             #  Subtract guess from signal
000033:    4140           00006                          EXTEND
000034:    4141           14171                          BZF      IS_RIGHT                              #  If guess-signal=0, must be right
000035:
000036:
000037:    4142                        CHK_CNT
000038:                                                                                                 #  Check count of guess in other segments
000039:
000040:    4142           30007                          CA       ZERO                                  #  Load 0 into A
000041:    4143           54110                          TS       ALM_ID                                #  Segment id to check versus guess
000042:
000043:    4144                        SEG_LOOP
000044:
000045:    4144           30110                          CA       ALM_ID                                #  Load current segment id
000046:    4145           00006                          EXTEND
000047:    4146           60074                          SU       CUR_ID                                #  Subtract the guess index
000048:    4147           00006                          EXTEND
000049:    4150           14162                          BZF      END_SLOOP                             #  If they are the same, don't check
000050:
000051:    4151           50110                          INDEX    ALM_ID                                #  Index using segment id
000052:    4152           30113                          CA       SIGNAL                                #  Get the signal num in other slot
000053:
000054:    4153           00006                          EXTEND
000055:    4154           60125                          SU       GUESS_NOW                             #  Subtract the guess in main slot
000056:    4155           00006                          EXTEND
000057:    4156           14160                          BZF      IS_ALMOST                             #  If result = 0, it matches
000058:
000059:    4157           14162                          TCF      END_SLOOP                             #  They don't match, move to next segment
000060:
000061:    4160                        IS_ALMOST
000062:
000063:    4160           24123                          INCR     ALMOST_TMP                            #  Increase count of correct num in wrong slot
000064:    4161           14172                          TCF      ENDLOOP1                              #  We found one match, stop checking the rest
000065:
000066:    4162                        END_SLOOP
000067:
000068:    4162           24110                          INCR     ALM_ID                                #  Increase index of internal loop
000069:    4163           30110                          CA       ALM_ID                                #  Load index into a
000070:
000071:    4164           00006                          EXTEND
000072:    4165           60103                          SU       END_ID                                #  Subtract 5
000073:    4166           00006                          EXTEND
000074:    4167           14172                          BZF      ENDLOOP1                              #  If index = 5, we are done
000075:
000076:    4170           14144                          TCF      SEG_LOOP                              #  Not yet 5, loop back and check next digit (segment, slot, number, any others!??)
000077:
000078:
000079:    4171                        IS_RIGHT
000080:
000081:    4171           24122                          INCR     RIGHT_TMP                             #  Increase count of correct numbers
000082:
000083:    4172                        ENDLOOP1
000084:
000085:    4172           24074                          INCR     CUR_ID                                #  Increase index of digit to check
000086:    4173           30074                          CA       CUR_ID                                #  Load new index
000087:    4174           00006                          EXTEND
000088:    4175           60103                          SU       END_ID                                #  Subtract 5
000089:    4176           00006                          EXTEND
000090:    4177           14202                          BZF      ALL5_CHK                              #  If next digit is 5
000091:
000092:    4200           40067                          CS       NEWJOB                                #  Each loop, nudge hardware watchdog - prob not this
000093:
000094:    4201           14130                          TCF      CHK_LOOP                              #  Not yet, do next digit
000095:
000096:    4202                        ALL5_CHK
000097:
000098:    4202           30122                          CA       RIGHT_TMP                             #  Load number correct
000099:    4203           54134                          TS       RIGHT_DIG                             #  Store in DSKY digit
000100:
000101:    4204           00006                          EXTEND
000102:    4205           60121                          SU       NUM_WIN                               #  Subtract 5
000103:    4206           00006                          EXTEND
000104:    4207           14211                          BZF      DID_WIN                               #  if result = 0 then we won
000105:
000106:    4210           14235                          TCF      NO_WIN                                #  no, we didn't win yet
000107:
000108:
000109:    4211                        DID_WIN
000110:
000111:                                                                                                 #  Do something here - flash all the lights?
000112:                                                                                                 #  For now the game will stop accepting input
000113:
000114:    4211           35225                          CA       STAWIN                                #  Load win state id into A
000115:    4212           54076                          TS       GM_STATE                              #  Store as new state
000116:
000117:    4213           35077                          CA       S77777                                #  Load constant with all bits set
000118:    4214           00006                          EXTEND
000119:    4215           01011                          WRITE    CH11                                  #  Output to IO channel, that'll do!
000120:
000121:    4216           30144                          CA       CHK_GRID                              #  Copy middle row to other rows
000122:    4217           54137                          TS       NUM_GRID
000123:    4220           54151                          TS       NUM_10
000124:
000125:    4221           30145                          CA       NUM_6
000126:    4222           54152                          TS       NUM_11
000127:    4223           54140                          TS       NUM_1
000128:
000129:    4224           30146                          CA       NUM_7
000130:    4225           54153                          TS       NUM_12
000131:    4226           54141                          TS       NUM_2
000132:
000133:    4227           30147                          CA       NUM_8
000134:    4230           54154                          TS       NUM_13
000135:    4231           54142                          TS       NUM_3
000136:
000137:    4232           30150                          CA       NUM_9
000138:    4233           54155                          TS       NUM_14
000139:    4234           54143                          TS       NUM_4
000140:
000141:
000142:    4235                        NO_WIN
000143:
000144:    4235           30123                          CA       ALMOST_TMP                            #  Load number in wrong slot
000145:    4236           54136                          TS       ALMOST_DIG                            #  Store in DSKY digit
000146:
000147:    4237           00002                          RETURN
000148:
000149:

End of include-file CheckGuess.agc.  Parent file is Main.agc


