
Source Code
000001:                                                                                                 #  The AGC does not support 'immediate mode', where you can embed a fixed value into the operand.
000002:                                                                                                 #  So where you might do lda #48 in 6502 to load 48 into A, here 48 must be present somewhere in RAM
000003:                                                                                                 #  or ROM so that it has an address we can reference in 'CA MYCONSTANT'.
000004:                                                                                                 #  So these constants are stored in the ROM itself as data to be lookup up when needed.
000005:
000006:                                                                                                 # -----------------------------------------------------------------------
000007:                                                                                                 #  Constants and read-only memory.
000008:
000009:                                                                                                 #  Names of CPU registers.
000010:    5072                        A                 EQUALS   0
000011:    5072                        L                 EQUALS   1                                     #  L AND Q ARE BOTH CHANNELS AND REGISTERS.
000012:    5072                        Q                 EQUALS   2
000013:    5072                        EBANK             EQUALS   3
000014:    5072                        FBANK             EQUALS   4
000015:    5072                        Z                 EQUALS   5                                     #  ADJACENT TO FBANK AND BBANK FOR DXCH Z
000016:    5072                        BBANK             EQUALS   6                                     #  (DTCB) AND DXCH FBANK (DTCF).
000017:    5072                        ZEROES            EQUALS   7                                     #  REGISTER 7 IS A ZERO-SOURCE, USED BY ZL.
000018:    5072                        ARUPT             EQUALS   10                                    #  INTERRUPT STORAGE.
000019:    5072                        LRUPT             EQUALS   11
000020:    5072                        QRUPT             EQUALS   12
000021:    5072                        SAMPTIME          EQUALS   13                                    #  SAMPLED TIME 1 & 2.
000022:    5072                        ZRUPT             EQUALS   15                                    #  (13 AND 14 ARE SPARES.)
000023:    5072                        BANKRUPT          EQUALS   16                                    #  USUALLY HOLDS FBANK OR BBANK.
000024:    5072                        BRUPT             EQUALS   17                                    #  RESUME ADDRESS AS WELL.
000025:    5072                        CYR               EQUALS   20
000026:    5072                        SR                EQUALS   21
000027:    5072                        CYL               EQUALS   22
000028:    5072                        EDOP              EQUALS   23
000029:
000030:
000031:    5072                        CH10              EQUALS   10
000032:    5072                        CH11              EQUALS   11
000033:    5072                        CH12              EQUALS   12
000034:    5072                        CH15              EQUALS   15
000035:    5072                        CH32              EQUALS   32
000036:    5072                        CH13              EQUALS   13
000037:    5072           00040        NOKEY             OCT      40
000038:
000039:    5073           00000        BIT15             DEC      16384      B-14
000040:    5074  0000007               ZERO              EQUALS   ZEROES
000041:
000042:
000043:    5074           00037        LOW5              OCT      37
000044:
000045:    5075           37774        O37774            OCT      37774
000046:    5076           37777        O37777            OCT      37777
000047:    5077           77677        S77777            OCT      77677
000048:    5100           37000        GM_TIME           OCT      37000                                 #  guessing a bit here, can't be arsed to look it up
000049:
000050:    5101           00012        TEN               DEC      10         B-14
000051:    5102           00034        CLEARBTN          DEC      28         B-14
000052:    5103           00022        RESETBTN          DEC      18         B-14
000053:    5104           77776        NEG_ONE           DEC      -1         B-14
000054:
000055:    5105           00024        TWENTY            DEC      20         B-14
000056:    5106           00025        TWENTY1           DEC      21         B-14
000057:    5107           00177        MASK128           DEC      127        B-14
000058:    5110           00017        MASK15            DEC      15         B-14
000059:    5111           00400        TWO56             DEC      256        B-14
000060:    5112           00016        FOURTEEN          DEC      14         B-14
000061:
000062:    5113           77776        NEG1              DEC      -1         B-14
000063:    5114           77775        NEG2              DEC      -2         B-14
000064:    5115           77772        NEG5              DEC      -5         B-14
000065:    5116           00176        BIT5              DEC      126        B-14
000066:
000067:
000068:    5117           00061        CP_ST_IDX          DEC      49         B-14
000069:
000070:    5120           00073        HS_LS_IDX          DEC      59         B-14
000071:    5121           00062        HS_MX_IDX          DEC      50         B-14
000072:
000073:    5122           00100        OPP_ERR           OCT      00100
000074:
000075:
000076:                                                                                                 #  pause to research lights on DSKY

End of include-file Constants.agc.  Parent file is Main.agc


