
Source Code
000001:
000002:
000003:                                                                                                 #  DISPLAY ALL 21 SEGMENTS IN THE DSKY
000004:
000005:    4631                        DISPALL
000006:    4631           00006                          EXTEND
000007:    4632           22071                          QXCH     RET_ADR                               #  Store return address because we TC elsewhere
000008:
000009:    4633           30007                          CA       ZERO                                  #  Do top left cell first as its digit doesn't have a segment partner
000010:    4634           54074                          TS       CUR_ID                                #  Use id for top left cell
000011:    4635           04653                          TC       DISPNUM                               #  Call function to display this digit
000012:
000013:    4636           24074                          INCR     CUR_ID                                #  Move onto next digit. The rest all come in pairs.
000014:
000015:    4637                        SEGLOOP
000016:
000017:    4637           04653                          TC       DISPNUM                               #  Call function to display next two digits.
000018:
000019:    4640           24074                          INCR     CUR_ID                                #  Inc cell id, it's now +2 from before display call.
000020:    4641           35106                          CA       TWENTY1                               #  Load id of last cell + 1
000021:    4642           00006                          EXTEND
000022:    4643           60074                          SU       CUR_ID                                #  Subtract current cell id
000023:    4644           00006                          EXTEND
000024:    4645           14650                          BZF      DONE15                                #  If zero, we displayed all cells
000025:
000026:    4646           54067                          TS       NEWJOB                                #  Nudge watchdog as display code fairly slow
000027:
000028:    4647           14637                          TCF      SEGLOOP                               #  Loop back to draw the next two segments
000029:
000030:
000031:    4650                        DONE15
000032:    4650           00006                          EXTEND
000033:    4651           22071                          QXCH     RET_ADR                               #  Retrieve our return address
000034:    4652           00002                          RETURN                                         #  Return to caller (multiple places)
000035:
000036:
000037:
000038:    4653                        DISPNUM                                                          #  CUR_ID is the index of next segment to display (0=left prog, 20 = digit 5 bottom row)
000039:                                                                                                 #  Print value held in VALUES array to correct segment
000040:
000041:                                                                                                 #  Data is sent to the DSKY via Channel 10 two digits at a time.
000042:                                                                                                 #  Bits 10-14 select which pair of digits we want to draw
000043:                                                                                                 #  Bits 0-4 selects which digit to draw on the right segment
000044:                                                                                                 #  Bits 5-9 selects which digit to draw on the left segment
000045:
000046:    4653           30007                          CA       ZEROES                                #  Load 0 into accumulator from a fixed rom constant
000047:    4654           54105                          TS       DIGIT_L                               #  Reset left digit calculation to 0 (empty)
000048:    4655           54106                          TS       DIGIT_R                               #  Reset right digit calculation to 0 (empty)
000049:
000050:    4656           50074                          INDEX    CUR_ID                                #  Index next instruction by segment id
000051:    4657           35163                          CA       SEG_0                                 #  Get which pair of digits this segment belongs to
000052:    4660           54075                          TS       SEG_OUT                               #  Save ID to RAM
000053:
000054:    4661           50075                          INDEX    SEG_OUT                               #  Index next instruction by segment pair id
000055:    4662           35210                          CA       SEGCODE                               #  Get value required in bits 10-14 to select pair, using id
000056:    4663           54104                          TS       DSKY_OUT                              #  Save to RAM to use later when we have the digit data
000057:
000058:    4664           50074                          INDEX    CUR_ID                                #  Index next instruction by segment id
000059:    4665           30131                          CA       VALUES                                #  Get the value in RAM we want to display here
000060:    4666           54061                          TS       TEMPI                                 #  Save to temporary RAM variable
000061:
000062:    4667           50074                          INDEX    CUR_ID                                #  Index next instruction by segment id
000063:    4670           35136                          CA       LEFTRIGHT                             #  Get whether this segment is left or right of its pair
000064:    4671           00006                          EXTEND                                         #  Extend to use a new Block 2 AGC instruction
000065:    4672           14711                          BZF      SKIPLEFT                              #  If zero (is right), skip the left digit
000066:
000067:    4673                        CALCLEFT
000068:    4673           50061                          INDEX    TEMPI                                 #  Index next instruction by our digit (0-9)
000069:    4674           35124                          CA       DSP0                                  #  Get the 5-bit code for this digit to send to DSKY
000070:    4675           54022                          TS       CYL                                   #  Transfer it to the shift left register
000071:    4676           30022                          CA       CYL                                   #  Shift left no 1
000072:    4677           30022                          CA       CYL                                   #  Shift left no 2
000073:    4700           30022                          CA       CYL                                   #  Shift left no 3
000074:    4701           30022                          CA       CYL                                   #  Shift left no 4
000075:    4702           30022                          CA       CYL                                   #  Shift left no 5 (is now in bits 5-9 for the left digit)
000076:    4703           54105                          TS       DIGIT_L                               #  Save to RAM to use later
000077:
000078:    4704           24074                          INCR     CUR_ID                                #  Move onto the right segment of the pair
000079:    4705           50074                          INDEX    CUR_ID                                #  Index by new segment id
000080:    4706           30131                          CA       VALUES                                #  Get value to display on right digit
000081:    4707           54106                          TS       DIGIT_R                               #  Save to RAM to use later
000082:
000083:    4710           14713                          TCF      DIDLEFT                               #  Skip the code to set only the right digit if left not drawn
000084:
000085:    4711                        SKIPLEFT
000086:    4711           30061                          CA       TEMPI                                 #  Load the value for this digit to draw on the right of pair
000087:    4712           54106                          TS       DIGIT_R                               #  Store to RAM
000088:
000089:    4713                        DIDLEFT
000090:
000091:    4713           50106                          INDEX    DIGIT_R                               #  Index by value of right digit
000092:    4714           35124                          CA       DSP0                                  #  Get the 5-bit code for this digit to send to DSKY
000093:
000094:    4715                        OUTPUT
000095:    4715           60104                          AD       DSKY_OUT                              #  Add bits 10-14
000096:    4716           60105                          AD       DIGIT_L                               #  Add bits 5-9
000097:    4717           00006                          EXTEND                                         #  Extend in order to use I/O channel instruction
000098:    4720           01010                          WRITE    CH10                                  #  Send the value to channel 10 to display on DKSY
000099:
000100:    4721           00002                          RETURN                                         #  Return from subroutine
000101:
000102:
000103:
000104:                                                                                                 # Hold up CPU to delay between movement of numbers to give animation effect
000105:
000106:    4722           01750        IODELAYT          DEC      1000       B-14                       #  This constant is stored in fixed ROM
000107:
000108:    4723                        IODELAY
000109:    4723           54061                          TS       TEMPI                                 #  Save accumulator.
000110:    4724           14725                          NOOP                                           #  Do thing for a bit
000111:    4725           34722                          CA       IODELAYT                              #  Load delay into A
000112:    4726           54067                          TS       NEWJOB                                #  Nudge watchdog as we're in a busy loop
000113:    4727           10000                          CCS      A                                     #  Decrement a and compare
000114:    4730           14726                          TCF      -2                                    #  >0 so jump back up to TS NEWJOB
000115:    4731           30061                          CA       TEMPI                                 #  Restore accumulator.
000116:    4732           00002                          RETURN                                         #  Return to where delay was asked for

End of include-file Display.agc.  Parent file is Main.agc


