
Source Code
000001:    4757                        KEYRUPT1                                                         #  Triggered automatically when a key is pressed
000002:
000003:    4757           35072                          CA       NOKEY                                 #  Load code for 'NO KEY PRESSED'
000004:    4760           54070                          TS       KEYBUF                                #  Clear key buffer so we don't persist presses from when they are not wanted
000005:
000006:    4761           30072                          CA       ACTIVE                                #  Load whether game is active
000007:    4762           00006                          EXTEND
000008:    4763           14770                          BZF      CANREAD                               #  If not active, we can accept key press to start the game
000009:
000010:    4764           30076                          CA       GM_STATE                              #  Load game state into A
000011:    4765           00006                          EXTEND
000012:    4766           14770                          BZF      CANREAD                               #  If not 'check_key', we don't care about key presses
000013:
000014:    4767           14774                          TCF      EXITRUPT                              #  Exit, we're not listening for key presses while processing happens
000015:
000016:    4770                        CANREAD
000017:
000018:    4770           00006                          EXTEND
000019:    4771           00015                          READ     CH15                                  #  Read I/O channel that contains the keycode
000020:    4772           75074                          MASK     LOW5                                  #  Retain only lower 5 bits
000021:    4773           54070                          TS       KEYBUF                                #  Store into keyboard buffer variable for main loop to pick up
000022:
000023:    4774                        EXITRUPT
000024:    4774           30007                          CA       ZEROES                                #  Clear the input channel
000025:    4775           00006                          EXTEND
000026:    4776           01015                          WRITE    CH15
000027:
000028:    4777           52011                          DXCH     ARUPT                                 #  Restore A, L, and Q, and exit the interrupt
000029:    5000           00006                          EXTEND
000030:    5001           22012                          QXCH     QRUPT
000031:    5002           50017                          RESUME
000032:
000033:
000034:
000035:
000036:    5003                        WAITKEY                                                          #  Waiting for any key press to start game
000037:                                                                                                 #  If we didn't wait, the RNG would always start in same state
000038:
000039:    5003           35072                          CA       NOKEY                                 #  Load key code for 'no key pressed'
000040:    5004           00006                          EXTEND
000041:    5005           60070                          SU       KEYBUF                                #  Subtract the key code read
000042:    5006           00006                          EXTEND
000043:    5007           15013                          BZF      WAITMORE                              #  If zero, nothing pressed, continue waiting
000044:
000045:    5010           35072                          CA       NOKEY                                 #  Clear keyboard buffer so not carried into game
000046:    5011           54070                          TS       KEYBUF
000047:
000048:    5012           14240                          TCF      NEW_GAME                              # Jump to set up new game
000049:
000050:    5013                        WAITMORE
000051:    5013           14074                          TCF      MAINLOOP
000052:
000053:
000054:
000055:
000056:    5014                        CHECKKEY                                                         #  Check whether key press in buffer from interrupt
000057:
000058:    5014           35072                          CA       NOKEY                                 #  Load key code for nothing pressed into A
000059:    5015           56070                          XCH      KEYBUF                                #  Swap A and buffer. A is now key code and buffer is clear.
000060:    5016           50000                          INDEX    A                                     #  Index using the keycode
000061:    5017           15020                          TCF      KEYTABL                               #  Into a jump table with jumps for each possible key
000062:
000063:                                                                                                 #  We ignore all presses except for 2, 4, 6, 8 for game control and ENTER/RESTART to reset game.
000064:    5020                        KEYTABL
000065:    5020           15061                          TCF      ENDKYCK                               #  unused
000066:    5021           14347                          TCF      NUM_PRESS                             #  1
000067:    5022           14347                          TCF      NUM_PRESS                             #  2
000068:    5023           14347                          TCF      NUM_PRESS                             #  3
000069:    5024           14347                          TCF      NUM_PRESS                             #  4
000070:    5025           14347                          TCF      NUM_PRESS                             #  5
000071:    5026           14347                          TCF      NUM_PRESS                             #  6
000072:    5027           14347                          TCF      NUM_PRESS                             #  7
000073:    5030           14347                          TCF      NUM_PRESS                             #  8
000074:    5031           14347                          TCF      NUM_PRESS                             #  9
000075:    5032           15061                          TCF      ENDKYCK                               #  unused
000076:    5033           15061                          TCF      ENDKYCK                               #  unused
000077:    5034           15061                          TCF      ENDKYCK                               #  unused
000078:    5035           15061                          TCF      ENDKYCK                               #  unused
000079:    5036           15061                          TCF      ENDKYCK                               #  unused
000080:    5037           15061                          TCF      ENDKYCK                               #  unused
000081:    5040           14347                          TCF      NUM_PRESS                             #  0 - index 16!
000082:    5041           14613                          TCF      CLR_DIGIT                             #  VERB
000083:    5042           14056                          TCF      INIT2                                 #  RSET
000084:    5043           15061                          TCF      ENDKYCK                               #  unused
000085:    5044           15061                          TCF      ENDKYCK                               #  unused
000086:    5045           15061                          TCF      ENDKYCK                               #  unused
000087:    5046           15061                          TCF      ENDKYCK                               #  unused
000088:    5047           15061                          TCF      ENDKYCK                               #  unused
000089:    5050           15061                          TCF      ENDKYCK                               #  unused
000090:    5051           15061                          TCF      ENDKYCK                               #  KEY REL
000091:    5052           14565                          TCF      SCROLL_UP                             #  +
000092:    5053           14602                          TCF      SCROLLDOWN                            #  -      not sure which way round makes sense yet
000093:    5054           15061                          TCF      ENDKYCK                               #  ENTR
000094:    5055           15061                          TCF      ENDKYCK                               #  unused
000095:    5056           14613                          TCF      CLR_DIGIT                             #  CLR
000096:    5057           15061                          TCF      ENDKYCK                               #  NOUN
000097:    5060           15061                          TCF      ENDKYCK                               #  NOKEY
000098:
000099:    5061                        ENDKYCK
000100:    5061           14074                          TCF      MAINLOOP                              #  When we do nothing, just exit back to main loop to wait for a valid key
000101:

End of include-file Input.agc.  Parent file is Main.agc


