
Source Code
000001:
000002:    4000                                          SETLOC   4000
000003:
000004:
000005:    4000                        RESTART
000006:    4000           00004                          INHINT                                         #  Turn off interrupts
000007:    4001           35075                          CA       O37774                                #  Schedule the first TIME3 interrupt
000008:    4002           54026                          TS       TIME3
000009:    4003           14054                          TCF      INIT                                  #  Proceed with initialization
000010:
000011:
000012: $Vectors.agc                            # Add table of interrupt vectors
000013:
000014:                                                                                                 #  Initialization.
000015:    4054                        INIT
000016:    4054           30007                          CA       ZERO                                  #  Load 0 to A
000017:    4055           54124                          TS       FIRST_RUN                             #  Store as first run
000018:
000019:    4056                        INIT2
000020:    4056           30007                          CA       ZERO
000021:    4057           00006                          EXTEND
000022:    4060           01011                          WRITE    CH11                                  #  Clear any DSKY lights
000023:
000024:    4061           04104                          TC       RESETALL                              #  Set all grid items to empty (-1)
000025:    4062           04631                          TC       DISPALL                               #  Display the 21 DSKY segments
000026:
000027:    4063           35072                          CA       NOKEY                                 #  Clear the keypad buffer variable
000028:    4064           54070                          TS       KEYBUF                                #  to initially hold an illegal keycode.
000029:
000030:    4065           30124                          CA       FIRST_RUN                             #  Is this the first run?
000031:    4066           00006                          EXTEND
000032:    4067           14071                          BZF      YES_FIRST                             #  Yes, wait for a key press to start
000033:
000034:    4070           14240                          TCF      NEW_GAME                              #  No, launch a new game immediately
000035:    4071                        YES_FIRST
000036:
000037:    4071           35224                          CA       STAWAIT                               #  Set game status to listen for key presses
000038:    4072           54076                          TS       GM_STATE
000039:    4073           00003                          RELINT
000040:
000041:    4074                        MAINLOOP
000042:    4074           40067                          CS       NEWJOB                                #  Each loop, nudge hardware watchdog
000043:
000044:
000045:    4075                        CHKSTATE
000046:
000047:    4075           50076                          INDEX    GM_STATE                              #  Index into game state jump table
000048:    4076           14077                          TCF      STATUSTBL                             #  Will jump to appropriate function below based on state
000049:    4077                        STATUSTBL
000050:    4077           15014                          TCF      CHECKKEY                              #  0 - Listen for keypress and jump to appropriate function
000051:    4100           15003                          TCF      WAITKEY                               #  1 - Wait for any key press to start game
000052:    4101           14454                          TCF      UPDATE_WIN                            #  2 - Wait for any key press to restart game
000053:    4102           14074                          TCF      MAINLOOP                              #  3 - Do nothing
000054:    4103           14056                          TCF      INIT2                                 #  4 - Start new game
000055:
000056:                                                                                                 #  Include the rest of the code modules below
000057:
000058:
000059: $Grid.agc
000060: $CheckGuess.agc
000061: $NewGame.agc
000062: $NumPress.agc
000063: $UpdateTurn.agc
000064: $WinState.agc
000065: $StoreGuess.agc
000066: $DisplayHistory.agc
000067: $Scroll.agc
000068: $ClearDigit.agc
000069: $Display.agc
000070: $Interrupts.agc
000071: $Input.agc
000072: $Random.agc
000073: $Constants.agc
000074: $Tables.agc
000075: $Ram.agc
Usage Table for Fixed-Memory Banks
Bank 00:  0000/2000 words used.
Bank 01:  0000/2000 words used.
Bank 02:  1531/2000 words used.
Bank 03:  0000/2000 words used.
Bank 04:  0000/2000 words used.
Bank 05:  0000/2000 words used.
Bank 06:  0000/2000 words used.
Bank 07:  0000/2000 words used.
Bank 10:  0000/2000 words used.
Bank 11:  0000/2000 words used.
Bank 12:  0000/2000 words used.
Bank 13:  0000/2000 words used.
Bank 14:  0000/2000 words used.
Bank 15:  0000/2000 words used.
Bank 16:  0000/2000 words used.
Bank 17:  0000/2000 words used.
Bank 20:  0000/2000 words used.
Bank 21:  0000/2000 words used.
Bank 22:  0000/2000 words used.
Bank 23:  0000/2000 words used.
Bank 24:  0000/2000 words used.
Bank 25:  0000/2000 words used.
Bank 26:  0000/2000 words used.
Bank 27:  0000/2000 words used.
Bank 30:  0000/2000 words used.
Bank 31:  0000/2000 words used.
Bank 32:  0000/2000 words used.
Bank 33:  0000/2000 words used.
Bank 34:  0000/2000 words used.
Bank 35:  0000/2000 words used.
Bank 36:  0000/2000 words used.
Bank 37:  0000/2000 words used.
Bank 40:  0000/2000 words used.
Bank 41:  0000/2000 words used.
Bank 42:  0000/2000 words used.
Bank 43:  0000/2000 words used.


SymbolTable

000001:   $17             0017          000002:   $3              0003          000003:   $4              0004          000004:   $5              0005
000005:   $6              0006          000006:   $7              0007          000007:   A            0000000          000008:   ACTIVE          0072
000009:   ALL5_CHK        4202          000010:   ALMOST_DIG      0136          000011:   ALMOST_TEN      0135          000012:   ALMOST_TMP      0123
000013:   ALM_ID          0110          000014:   ARUPT        0000010          000015:   BANKRUPT     0000016          000016:   BBANK        0000006
000017:   BIT15           5073          000018:   BIT5            5116          000019:   BOT23           5221          000020:   BOT45           5222
000021:   BRUPT        0000017          000022:   CALCLEFT        4673          000023:   CANREAD         4770          000024:   CANTSCROLL      4601
000025:   CH10         0000010          000026:   CH11         0000011          000027:   CH12         0000012          000028:   CH13         0000013
000029:   CH15         0000015          000030:   CH32         0000032          000031:   CHECKGUESS      4120          000032:   CHECKKEY        5014
000033:   CHECKNEW        4373          000034:   CHECK_IDX       0112          000035:   CHKSTATE        4075          000036:   CHK_CNT         4142
000037:   CHK_GRID        0144          000038:   CHK_LOOP        4130          000039:   CHK_VALUE       0077          000040:   CLEARBTN        5102
000041:   CLEARGUESS      4533          000042:   CLR_DIGIT       4613          000043:   CLR_DONE        4344          000044:   CLR_HIS         4330
000045:   CLR_LOOP        4332          000046:   COL_ID          0102          000047:   COL_STRT        5252          000048:   COL_STRT2       5253
000049:   COL_STRT3       5254          000050:   COL_STRT4       5255          000051:   COL_STRT5       5256          000052:   COPY_DONE       4514
000053:   COPY_LOOP       4500          000054:   COUNTER         0073          000055:   CP_ST_IDX       5117          000056:   CUR_ID          0074
000057:   CYL          0000022          000058:   CYR          0000020          000059:   DEC1            5224          000060:   DEC10           5235
000061:   DEC11           5236          000062:   DEC12           5237          000063:   DEC13           5240          000064:   DEC14           5241
000065:   DEC15           5242          000066:   DEC16           5243          000067:   DEC17           5244          000068:   DEC18           5245
000069:   DEC19           5246          000070:   DEC2            5225          000071:   DEC3            5226          000072:   DEC4            5227
000073:   DEC5            5230          000074:   DEC6            5231          000075:   DEC7            5232          000076:   DEC8            5233
000077:   DEC9            5234          000078:   DES_IDX         0130          000079:   DIDLEFT         4713          000080:   DID_LOSE        4754
000081:   DID_WIN         4211          000082:   DIGITS          5223          000083:   DIGIT_L         0105          000084:   DIGIT_R         0106
000085:   DISPALL         4631          000086:   DISPNUM         4653          000087:   DISP_HIST       4542          000088:   DISP_LOOP       4550
000089:   DIS_DONE        4564          000090:   DONE15          4650          000091:   DONE_TURNS      4451          000092:   DO_TURNS        4376
000093:   DSKY_OUT        0104          000094:   DSP0            5124          000095:   DSP1            5125          000096:   DSP2            5126
000097:   DSP3            5127          000098:   DSP4            5130          000099:   DSP5            5131          000100:   DSP6            5132
000101:   DSP7            5133          000102:   DSP8            5134          000103:   DSP9            5135          000104:   DSPBLANK        5123
000105:   EBANK        0000003          000106:   EDOP         0000023          000107:   ENDKYCK         5061          000108:   ENDLOOP1        4172
000109:   END_ID          0103          000110:   END_SLOOP       4162          000111:   ENTER_IDX       0111          000112:   EXITRUPT        4774
000113:   FBANK        0000004          000114:   FIRST_RUN       0124          000115:   FOURTEEN        5112          000116:   GM_DONE         0100
000117:   GM_STATE        0076          000118:   GM_TIME         5100          000119:   GRID_C0         5265          000120:   GRID_C1         5266
000121:   GRID_C10        5277          000122:   GRID_C11        5300          000123:   GRID_C12        5301          000124:   GRID_C13        5302
000125:   GRID_C14        5303          000126:   GRID_C2         5267          000127:   GRID_C3         5270          000128:   GRID_C4         5271
000129:   GRID_C5         5272          000130:   GRID_C6         5273          000131:   GRID_C7         5274          000132:   GRID_C8         5275
000133:   GRID_C9         5276          000134:   GRID_CM1        5264          000135:   GRID_CM2        5263          000136:   GRID_CM3        5262
000137:   GRID_CM4        5261          000138:   GRID_CM5        5260          000139:   GRID_COL        5257          000140:   GRID_R0         5312
000141:   GRID_R1         5313          000142:   GRID_R10        5324          000143:   GRID_R11        5325          000144:   GRID_R12        5326
000145:   GRID_R13        5327          000146:   GRID_R14        5330          000147:   GRID_R2         5314          000148:   GRID_R3         5315
000149:   GRID_R4         5316          000150:   GRID_R5         5317          000151:   GRID_R6         5320          000152:   GRID_R7         5321
000153:   GRID_R8         5322          000154:   GRID_R9         5323          000155:   GRID_RM1        5311          000156:   GRID_RM2        5310
000157:   GRID_RM3        5307          000158:   GRID_RM4        5306          000159:   GRID_RM5        5305          000160:   GRID_ROW        5304
000161:   GUESS_NOW       0125          000162:   HIS_IDX         0156          000163:   HS_LS_IDX       5120          000164:   HS_MX_IDX       5121
000165:   INIT            4054          000166:   INIT2           4056          000167:   INT_LOOP        4277          000168:   IODELAY         4723
000169:   IODELAYT        4722          000170:   IS_ALMOST       4160          000171:   IS_GM_OVR       4452          000172:   IS_RIGHT        4171
000173:   KEYBUF          0070          000174:   KEYRUPT1        4757          000175:   KEYTABL         5020          000176:   L            0000001
000177:   LEFTRIGHT       5136          000178:   LOW5            5074          000179:   LR1             5137          000180:   LR10            5150
000181:   LR11            5151          000182:   LR12            5152          000183:   LR13            5153          000184:   LR14            5154
000185:   LR15            5155          000186:   LR16            5156          000187:   LR17            5157          000188:   LR18            5160
000189:   LR19            5161          000190:   LR2             5140          000191:   LR20            5162          000192:   LR3             5141
000193:   LR4             5142          000194:   LR5             5143          000195:   LR6             5144          000196:   LR7             5145
000197:   LR8             5146          000198:   LR9             5147          000199:   LRUPT        0000011          000200:   MAINLOOP        4074
000201:   MASK128         5107          000202:   MASK15          5110          000203:   MAX_IDX         0157          000204:   MID12           5216
000205:   MID34           5217          000206:   MID5BOT1        5220          000207:   NEG1            5113          000208:   NEG2            5114
000209:   NEG5            5115          000210:   NEG_ONE         5104          000211:   NEWJOB          0067          000212:   NEW_GAME        4240
000213:   NOKEY           5072          000214:   NONE_LEFT       4426          000215:   NOTYET          4464          000216:   NOT_WON         4422
000217:   NOT_ZERO        4361          000218:   NOUNLR          5212          000219:   NO_CLR          4630          000220:   NO_DUPS         4314
000221:   NO_WIN          4235          000222:   NUM_1           0140          000223:   NUM_10          0151          000224:   NUM_11          0152
000225:   NUM_12          0153          000226:   NUM_13          0154          000227:   NUM_14          0155          000228:   NUM_2           0141
000229:   NUM_3           0142          000230:   NUM_4           0143          000231:   NUM_6           0145          000232:   NUM_7           0146
000233:   NUM_8           0147          000234:   NUM_9           0150          000235:   NUM_GRID        0137          000236:   NUM_PRESS       4347
000237:   NUM_WIN         0121          000238:   O37774          5075          000239:   O37777          5076          000240:   OPP_ERR         5122
000241:   OUTPUT          4715          000242:   PICKED_ALL      4325          000243:   PREV_1          0161          000244:   PREV_2          0162
000245:   PREV_3          0163          000246:   PREV_4          0164          000247:   PREV_GUESS      0160          000248:   Q            0000002
000249:   QRUPT        0000012          000250:   RAND1           5331          000251:   RAND10          5342          000252:   RAND100         5474
000253:   RAND101         5475          000254:   RAND102         5476          000255:   RAND103         5477          000256:   RAND104         5500
000257:   RAND105         5501          000258:   RAND106         5502          000259:   RAND107         5503          000260:   RAND108         5504
000261:   RAND109         5505          000262:   RAND11          5343          000263:   RAND110         5506          000264:   RAND111         5507
000265:   RAND112         5510          000266:   RAND113         5511          000267:   RAND114         5512          000268:   RAND115         5513
000269:   RAND116         5514          000270:   RAND117         5515          000271:   RAND118         5516          000272:   RAND119         5517
000273:   RAND12          5344          000274:   RAND120         5520          000275:   RAND121         5521          000276:   RAND122         5522
000277:   RAND123         5523          000278:   RAND124         5524          000279:   RAND125         5525          000280:   RAND126         5526
000281:   RAND127         5527          000282:   RAND128         5530          000283:   RAND13          5345          000284:   RAND14          5346
000285:   RAND15          5347          000286:   RAND16          5350          000287:   RAND17          5351          000288:   RAND18          5352
000289:   RAND19          5353          000290:   RAND2           5332          000291:   RAND20          5354          000292:   RAND21          5355
000293:   RAND22          5356          000294:   RAND23          5357          000295:   RAND24          5360          000296:   RAND25          5361
000297:   RAND26          5362          000298:   RAND27          5363          000299:   RAND28          5364          000300:   RAND29          5365
000301:   RAND3           5333          000302:   RAND30          5366          000303:   RAND31          5367          000304:   RAND32          5370
000305:   RAND33          5371          000306:   RAND34          5372          000307:   RAND35          5373          000308:   RAND36          5374
000309:   RAND37          5375          000310:   RAND38          5376          000311:   RAND39          5377          000312:   RAND4           5334
000313:   RAND40          5400          000314:   RAND41          5401          000315:   RAND42          5402          000316:   RAND43          5403
000317:   RAND44          5404          000318:   RAND45          5405          000319:   RAND46          5406          000320:   RAND47          5407
000321:   RAND48          5410          000322:   RAND49          5411          000323:   RAND5           5335          000324:   RAND50          5412
000325:   RAND51          5413          000326:   RAND52          5414          000327:   RAND53          5415          000328:   RAND54          5416
000329:   RAND55          5417          000330:   RAND56          5420          000331:   RAND57          5421          000332:   RAND58          5422
000333:   RAND59          5423          000334:   RAND6           5336          000335:   RAND60          5424          000336:   RAND61          5425
000337:   RAND62          5426          000338:   RAND63          5427          000339:   RAND64          5430          000340:   RAND65          5431
000341:   RAND66          5432          000342:   RAND67          5433          000343:   RAND68          5434          000344:   RAND69          5435
000345:   RAND7           5337          000346:   RAND70          5436          000347:   RAND71          5437          000348:   RAND72          5440
000349:   RAND73          5441          000350:   RAND74          5442          000351:   RAND75          5443          000352:   RAND76          5444
000353:   RAND77          5445          000354:   RAND78          5446          000355:   RAND79          5447          000356:   RAND8           5340
000357:   RAND80          5450          000358:   RAND81          5451          000359:   RAND82          5452          000360:   RAND83          5453
000361:   RAND84          5454          000362:   RAND85          5455          000363:   RAND86          5456          000364:   RAND87          5457
000365:   RAND88          5460          000366:   RAND89          5461          000367:   RAND9           5341          000368:   RAND90          5462
000369:   RAND91          5463          000370:   RAND92          5464          000371:   RAND93          5465          000372:   RAND94          5466
000373:   RAND95          5467          000374:   RAND96          5470          000375:   RAND97          5471          000376:   RAND98          5472
000377:   RAND99          5473          000378:   RANDOM          5062          000379:   RESETALL        4104          000380:   RESETBTN        5103
000381:   RESETEND        4117          000382:   RESETLOOP       4106          000383:   RESTART         4000          000384:   RESUME          4736
000385:   RET_ADR         0071          000386:   RIGHT_DIG       0134          000387:   RIGHT_TEN       0133          000388:   RIGHT_TMP       0122
000389:   ROW_ID          0101          000390:   ROW_STRT        5247          000391:   ROW_STRT2       5250          000392:   ROW_STRT3       5251
000393:   S77777          5077          000394:   SAMPTIME     0000013          000395:   SCROLLDOWN      4602          000396:   SCROLL_UP       4565
000397:   SCR_UPDT        4575          000398:   SEGCODE         5210          000399:   SEGLOOP         4637          000400:   SEG_0           5163
000401:   SEG_1           5164          000402:   SEG_10          5175          000403:   SEG_11          5176          000404:   SEG_12          5177
000405:   SEG_13          5200          000406:   SEG_14          5201          000407:   SEG_15          5202          000408:   SEG_16          5203
000409:   SEG_17          5204          000410:   SEG_18          5205          000411:   SEG_19          5206          000412:   SEG_2           5165
000413:   SEG_20          5207          000414:   SEG_3           5166          000415:   SEG_4           5167          000416:   SEG_5           5170
000417:   SEG_6           5171          000418:   SEG_7           5172          000419:   SEG_8           5173          000420:   SEG_9           5174
000421:   SEG_LOOP        4144          000422:   SEG_OUT         0075          000423:   SIGNAL          0113          000424:   SIGNAL1         0114
000425:   SIGNAL2         0115          000426:   SIGNAL3         0116          000427:   SIGNAL4         0117          000428:   SIG_ID          0107
000429:   SIG_LOOP        4272          000430:   SIG_NOW         0126          000431:   SKIPLEFT        4711          000432:   SR           0000021
000433:   SRC_IDX         0127          000434:   STAINIT         5227          000435:   STAINPUT        5223          000436:   STALOSE         5226
000437:   STATUSTBL       4077          000438:   STAWAIT         5224          000439:   STAWIN          5225          000440:   STOREGUESS      4465
000441:   T3RUPT          4733          000442:   T4RUPT          4742          000443:   TEMPI           0061          000444:   TEN             5101
000445:   TENS_ZERO       4414          000446:   TIME1           0025          000447:   TIME2           0024          000448:   TIME3           0026
000449:   TIME4           0027          000450:   TIME5           0030          000451:   TIME6           0031          000452:   TOP1            5213
000453:   TOP23           5214          000454:   TOP45           5215          000455:   TURN_DIG        0132          000456:   TURN_TEN        0131
000457:   TWENTY          5105          000458:   TWENTY1         5106          000459:   TWO56           5111          000460:   UPDATE_WIN      4454
000461:   VALUES          0131          000462:   VERBLR          5211          000463:   WAITKEY         5003          000464:   WAITMORE        5013
000465:   WRAP_TEN        4407          000466:   YES_FIRST       4071          000467:   Z            0000005          000468:   ZERO         0000007
000469:   ZEROES       0000007          000470:   ZERO_IDX        0120          000471:   ZERO_PRESS      4356          000472:   ZRUPT        0000015


Assembly Status

Unresolved symbols:  0
Fatal errors:  0
Warnings:  0


Bugger Words

Bugger word 64516 at 02,3533.
Bugger word 64001 at 03,2002.
Bugger word 73776 at 00,2002.
Bugger word 73777 at 01,2002.
Bugger word 74002 at 04,2002.
Bugger word 74003 at 05,2002.
Bugger word 74004 at 06,2002.
Bugger word 74005 at 07,2002.
Bugger word 74006 at 10,2002.
Bugger word 74007 at 11,2002.
Bugger word 74010 at 12,2002.
Bugger word 74011 at 13,2002.
Bugger word 74012 at 14,2002.
Bugger word 74013 at 15,2002.
Bugger word 74014 at 16,2002.
Bugger word 74015 at 17,2002.
Bugger word 74016 at 20,2002.
Bugger word 74017 at 21,2002.
Bugger word 74020 at 22,2002.
Bugger word 74021 at 23,2002.
Bugger word 74022 at 24,2002.
Bugger word 74023 at 25,2002.
Bugger word 74024 at 26,2002.
Bugger word 74025 at 27,2002.
Bugger word 74026 at 30,2002.
Bugger word 74027 at 31,2002.
Bugger word 74030 at 32,2002.
Bugger word 74031 at 33,2002.
Bugger word 74032 at 34,2002.
Bugger word 74033 at 35,2002.
Bugger word 74034 at 36,2002.
Bugger word 74035 at 37,2002.
Bugger word 74036 at 40,2002.
Bugger word 74037 at 41,2002.
Bugger word 74040 at 42,2002.
Bugger word 74041 at 43,2002.


