
Source Code
000001:    4240                        NEW_GAME
000002:
000003:    4240           35224                          CA       DEC1                                  #  Load 1 into A (no immediate mode)
000004:    4241           54131                          TS       TURN_TEN                              #  Store as 'tens' digit for turns left
000005:
000006:    4242           35225                          CA       DEC2                                  #  Load 2 into A
000007:    4243           54132                          TS       TURN_DIG                              #  Store as ones (12 turns) - still gives opportunity for people to show off
000008:                                                                                                 #  with their number of turns left
000009:
000010:    4244           35243                          CA       DEC16                                 #  Load 16 into A
000011:    4245           54120                          TS       ZERO_IDX                              #  Store in ram to use to check for 0 key press
000012:
000013:    4246           35230                          CA       DEC5                                  #  Load 5 into A
000014:    4247           54121                          TS       NUM_WIN                               #  Correct digits needed to win
000015:
000016:    4250           30007                          CA       ZERO                                  #  Load 0 into A
000017:    4251           54133                          TS       RIGHT_TEN                             #  Set current correct & almost guesses to zero
000018:    4252           54135                          TS       ALMOST_TEN
000019:    4253           54134                          TS       RIGHT_DIG
000020:    4254           54136                          TS       ALMOST_DIG
000021:    4255           54156                          TS       HIS_IDX                               #  Reset scrollable guess history index
000022:
000023:    4256           35115                          CA       NEG5                                  #  Load -5
000024:    4257           54157                          TS       MAX_IDX                               #  Reset maximum scrollable guess history index
000025:
000026:    4260           35231                          CA       DEC6                                  #  Load 6 into A
000027:    4261           54111                          TS       ENTER_IDX                             #  Store as segment for player to populate next
000028:
000029:    4262           35104                          CA       NEG_ONE                               #  Load -1 into A
000030:    4263           54113                          TS       SIGNAL                                #  Initialise digits to -1 so wont match chosen digit
000031:    4264           54114                          TS       SIGNAL1
000032:    4265           54115                          TS       SIGNAL2
000033:    4266           54116                          TS       SIGNAL3
000034:    4267           54117                          TS       SIGNAL4
000035:
000036:
000037:    4270           35227                          CA       DEC4                                  #  Load 4 into A
000038:    4271           54074                          TS       CUR_ID                                #  Store as id of signal digit to populate
000039:
000040:    4272                        SIG_LOOP                                                         #  Loop through each digit to be chosen
000041:
000042:    4272           05062                          TC       RANDOM                                #  Get a random number from 0-9 into A
000043:    4273           54061                          TS       TEMPI                                 #  Store in temp var
000044:
000045:    4274           30074                          CA       CUR_ID                                #  Get current digit being chosen
000046:    4275           65224                          AD       DEC1                                  #  Add 1
000047:    4276           54103                          TS       END_ID                                #  Store as first id to check against
000048:
000049:    4277                        INT_LOOP                                                         #  Loop through the previous chosen digits
000050:
000051:    4277           30103                          CA       END_ID                                #  Load id to check against
000052:    4300           00006                          EXTEND
000053:    4301           60121                          SU       NUM_WIN                               #  Subtract 5
000054:    4302           00006                          EXTEND
000055:    4303           14314                          BZF      NO_DUPS                               #  If we reached id 5, no dups were found
000056:
000057:    4304           50103                          INDEX    END_ID                                #  Index by digit id within internal check
000058:    4305           30113                          CA       SIGNAL                                #  Get number chosen in slot
000059:
000060:    4306           00006                          EXTEND
000061:    4307           60061                          SU       TEMPI                                 #  Subtract the proposed number for this slot
000062:    4310           00006                          EXTEND
000063:    4311           14272                          BZF      SIG_LOOP                              #  Found a dup, try again
000064:
000065:    4312           24103                          INCR     END_ID                                #  Increase id for dup check
000066:    4313           14277                          TCF      INT_LOOP                              #  Look at next slot
000067:
000068:    4314                        NO_DUPS
000069:
000070:    4314           30061                          CA       TEMPI                                 #  Get the chosen number
000071:    4315           50074                          INDEX    CUR_ID                                #  Index by slot to populate
000072:    4316           54113                          TS       SIGNAL                                #  Store in the signal array
000073:
000074:                                                                                                 # INDEX           CUR_ID          # Index by slot
000075:                                                                                                 # TS              NUM_10          # Store in DSKY for debugging
000076:
000077:    4317           30074                          CA       CUR_ID                                #  Get slot index
000078:    4320           00006                          EXTEND
000079:    4321           14325                          BZF      PICKED_ALL                            #  Done slot 0, all picked
000080:
000081:    4322           00006                          EXTEND
000082:    4323           26074                          DIM      CUR_ID                                #  Decrement slot id
000083:
000084:    4324           14272                          TCF      SIG_LOOP                              #  Do next slot
000085:
000086:    4325                        PICKED_ALL
000087:
000088:    4325           04631                          TC       DISPALL                               #  Display the new game state
000089:
000090:    4326           35223                          CA       STAINPUT                              #  Set game state to listen for key presses and respond
000091:    4327           54076                          TS       GM_STATE
000092:
000093:    4330                        CLR_HIS
000094:
000095:    4330           35120                          CA       HS_LS_IDX                             #  Get index of last history slot
000096:    4331           54074                          TS       CUR_ID                                #  store in variable
000097:
000098:    4332                        CLR_LOOP
000099:
000100:    4332           35104                          CA       NEG_ONE                               #  Load -1 into A
000101:    4333           50074                          INDEX    CUR_ID                                #  Index by current history slot
000102:    4334           54160                          TS       PREV_GUESS                            #  Store -1 to history array
000103:
000104:    4335           30074                          CA       CUR_ID                                #  Load current index
000105:    4336           00006                          EXTEND
000106:    4337           14344                          BZF      CLR_DONE                              #  If it's 0, we are done
000107:
000108:    4340           00006                          EXTEND
000109:    4341           26074                          DIM      CUR_ID                                #  Decrement current id
000110:
000111:    4342           40067                          CS       NEWJOB                                #  Each loop, nudge hardware watchdog
000112:
000113:    4343           14332                          TCF      CLR_LOOP                              #  Do next slot in history array
000114:
000115:    4344                        CLR_DONE
000116:
000117:
000118:    4344           00003                          RELINT                                         #  Enable interrupts
000119:    4345           24124                          INCR     FIRST_RUN                             #  Set flag that game has run once
000120:
000121:    4346           14074                          TCF      MAINLOOP                              #  Go back to main loop

End of include-file NewGame.agc.  Parent file is Main.agc


