
Source Code
000001:
000002:                                                                                                 #  The AGC has 2,000 words (4KB) of erasable memory. We only need a fraction for this game!
000003:
000004:
000005:                                                                                                 # -------------------------------------------------------------------------
000006:                                                                                                 #  Some variables.
000007:
000008:    0024                                          SETLOC   24
000009:    0024                        TIME2             ERASE
000010:    0025                        TIME1             ERASE
000011:    0026                        TIME3             ERASE
000012:    0027                        TIME4             ERASE
000013:    0030                        TIME5             ERASE
000014:    0031                        TIME6             ERASE
000015:
000016:    0061                                          SETLOC   61
000017:
000018:                                                                                                 #  Temp variables.
000019:    0061                        TEMPI             ERASE
000020:
000021:
000022:
000023:    0067                                          SETLOC   67
000024:    0067                        NEWJOB            ERASE
000025:
000026:    0070                        KEYBUF            ERASE
000027:    0071                        RET_ADR           ERASE
000028:
000029:    0072                        ACTIVE            ERASE
000030:    0073                        COUNTER           ERASE
000031:    0074                        CUR_ID            ERASE
000032:    0075                        SEG_OUT           ERASE
000033:    0076                        GM_STATE          ERASE
000034:    0077                        CHK_VALUE          ERASE
000035:    0100                        GM_DONE           ERASE
000036:
000037:    0101                        ROW_ID            ERASE
000038:    0102                        COL_ID            ERASE
000039:    0103                        END_ID            ERASE
000040:    0104                        DSKY_OUT          ERASE
000041:    0105                        DIGIT_L           ERASE
000042:    0106                        DIGIT_R           ERASE
000043:    0107                        SIG_ID            ERASE
000044:    0110                        ALM_ID            ERASE
000045:
000046:    0111                        ENTER_IDX          ERASE
000047:    0112                        CHECK_IDX          ERASE
000048:    0113                        SIGNAL            ERASE                                          #  ARRAY OF FIVE DIGITS TO GUESS
000049:    0114                        SIGNAL1           ERASE
000050:    0115                        SIGNAL2           ERASE
000051:    0116                        SIGNAL3           ERASE
000052:    0117                        SIGNAL4           ERASE
000053:
000054:    0120                        ZERO_IDX          ERASE
000055:    0121                        NUM_WIN           ERASE
000056:
000057:    0122                        RIGHT_TMP          ERASE
000058:    0123                        ALMOST_TMP          ERASE
000059:    0124                        FIRST_RUN          ERASE
000060:
000061:    0125                        GUESS_NOW          ERASE
000062:    0126                        SIG_NOW           ERASE
000063:    0127                        SRC_IDX           ERASE                                          #  Source of history copy index
000064:    0130                        DES_IDX           ERASE                                          #  Destination of history copy index
000065:
000066:    0131                        TURN_TEN
000067:    0131                        VALUES            ERASE                                          #  ARRAY OF VALUES TO DISPLAY ON DSKY
000068:
000069:    0132                        TURN_DIG          ERASE
000070:    0133                        RIGHT_TEN          ERASE
000071:    0134                        RIGHT_DIG          ERASE
000072:    0135                        ALMOST_TEN          ERASE
000073:    0136                        ALMOST_DIG          ERASE
000074:    0137                        NUM_GRID          ERASE
000075:    0140                        NUM_1             ERASE
000076:    0141                        NUM_2             ERASE
000077:    0142                        NUM_3             ERASE
000078:    0143                        NUM_4             ERASE
000079:    0144                        CHK_GRID          ERASE
000080:    0145                        NUM_6             ERASE
000081:    0146                        NUM_7             ERASE
000082:    0147                        NUM_8             ERASE
000083:    0150                        NUM_9             ERASE
000084:    0151                        NUM_10            ERASE
000085:    0152                        NUM_11            ERASE
000086:    0153                        NUM_12            ERASE
000087:    0154                        NUM_13            ERASE
000088:    0155                        NUM_14            ERASE
000089:
000090:
000091:    0156                        HIS_IDX           ERASE                                          #  index in array below to start drawing historical guesses (player will be able to scroll through)
000092:    0157                        MAX_IDX           ERASE
000093:
000094:    0160                        PREV_GUESS          ERASE                                          # DEC 45, 9 previous guesses x 5 digits
000095:    0161                        PREV_1            ERASE
000096:    0162                        PREV_2            ERASE
000097:    0163                        PREV_3            ERASE
000098:    0164                        PREV_4            ERASE    +70
000099:

End of include-file Ram.agc.  Parent file is Main.agc


