
Source Code
000001:    4465                        STOREGUESS
000002:
000003:    4465           35231                          CA       DEC6                                  #  Load 6 into A
000004:    4466           54111                          TS       ENTER_IDX                             #  Store as segment for player to populate next
000005:
000006:    4467           35117                          CA       CP_ST_IDX                             #  Load index to start from
000007:    4470           54127                          TS       SRC_IDX                               #  Store into source index variable
000008:
000009:    4471           65230                          AD       DEC5                                  #  Add 5
000010:    4472           54130                          TS       DES_IDX                               #  Store in destination index variable
000011:
000012:    4473           30157                          CA       MAX_IDX                               #  Load current max history index
000013:    4474           65230                          AD       DEC5                                  #  Increase by 5
000014:    4475           54157                          TS       MAX_IDX                               #  Store back in memory
000015:
000016:    4476           30007                          CA       ZERO                                  #  Load 0 into A
000017:    4477           54156                          TS       HIS_IDX                               #  Reset a previous scrolled list
000018:
000019:    4500                        COPY_LOOP
000020:
000021:
000022:    4500           50127                          INDEX    SRC_IDX                               #  Index using source
000023:    4501           30160                          CA       PREV_GUESS                            #  Get value from array
000024:
000025:    4502           50130                          INDEX    DES_IDX                               #  Index using destination
000026:    4503           54160                          TS       PREV_GUESS                            #  Store value into array
000027:
000028:    4504           30127                          CA       SRC_IDX                               #  Load index just copied
000029:    4505           00006                          EXTEND
000030:    4506           14514                          BZF      COPY_DONE                             #  If it's zero, we're done
000031:
000032:    4507           00006                          EXTEND
000033:    4510           26127                          DIM      SRC_IDX                               #  Reduce source index by 1
000034:
000035:    4511           00006                          EXTEND
000036:    4512           26130                          DIM      DES_IDX                               #  Reduce dest index by 1
000037:
000038:    4513           14500                          TCF      COPY_LOOP                             #  Keep going
000039:
000040:    4514                        COPY_DONE
000041:
000042:    4514           30137                          CA       NUM_GRID                              #  Copy guess in row 1 into prev guess history slot 0
000043:    4515           54160                          TS       PREV_GUESS
000044:    4516           54144                          TS       CHK_GRID                              #  and to row below of DSKY
000045:
000046:    4517           30140                          CA       NUM_1                                 #  Copy guess in row 1 into prev guess history slot 0
000047:    4520           54161                          TS       PREV_1
000048:    4521           54145                          TS       NUM_6                                 #  and to row below of DSKY
000049:
000050:    4522           30141                          CA       NUM_2                                 #  Copy guess in row 1 into prev guess history slot 0
000051:    4523           54162                          TS       PREV_2
000052:    4524           54146                          TS       NUM_7                                 #  and to row below of DSKY
000053:
000054:    4525           30142                          CA       NUM_3                                 #  Copy guess in row 1 into prev guess history slot 0
000055:    4526           54163                          TS       PREV_3
000056:    4527           54147                          TS       NUM_8                                 #  and to row below of DSKY
000057:
000058:    4530           30143                          CA       NUM_4                                 #  Copy guess in row 1 into prev guess history slot 0
000059:    4531           54164                          TS       PREV_4
000060:    4532           54150                          TS       NUM_9                                 #  and to row below of DSKY
000061:
000062:    4533                        CLEARGUESS
000063:
000064:    4533           35104                          CA       NEG_ONE
000065:    4534           54137                          TS       NUM_GRID
000066:    4535           54140                          TS       NUM_1
000067:    4536           54141                          TS       NUM_2
000068:    4537           54142                          TS       NUM_3
000069:    4540           54143                          TS       NUM_4
000070:
000071:    4541           00002                          RETURN
000072:

End of include-file StoreGuess.agc.  Parent file is Main.agc


