
Source Code
000001:
000002:                                                                                                 #  Because constants are held in fixed memory (ROM), we can organise them consecutively
000003:                                                                                                 #  and use them as handy lookup tables
000004:
000005:                                                                                                 #  For each possible digit (blank, 0-9), the 5-bit code we need to send to the DSKY.
000006:
000007:    5123           00000        DSPBLANK          OCT      0
000008:    5124           00025        DSP0              OCT      25
000009:    5125           00003        DSP1              OCT      3
000010:    5126           00031        DSP2              OCT      31
000011:    5127           00033        DSP3              OCT      33
000012:    5130           00017        DSP4              OCT      17
000013:    5131           00036        DSP5              OCT      36
000014:    5132           00034        DSP6              OCT      34
000015:    5133           00023        DSP7              OCT      23
000016:    5134           00035        DSP8              OCT      35
000017:    5135           00037        DSP9              OCT      37
000018:
000019:                                                                                                 #  For each of the 21 display digits, is it left (1) or right (0) of the pair?
000020:
000021:    5136           00001        LEFTRIGHT          DEC      1          B-14
000022:    5137           00000        LR1               DEC      0          B-14
000023:    5140           00001        LR2               DEC      1          B-14
000024:    5141           00000        LR3               DEC      0          B-14
000025:    5142           00001        LR4               DEC      1          B-14
000026:    5143           00000        LR5               DEC      0          B-14
000027:    5144           00000        LR6               DEC      0          B-14
000028:    5145           00001        LR7               DEC      1          B-14
000029:    5146           00000        LR8               DEC      0          B-14
000030:    5147           00001        LR9               DEC      1          B-14
000031:    5150           00000        LR10              DEC      0          B-14
000032:    5151           00001        LR11              DEC      1          B-14
000033:    5152           00000        LR12              DEC      0          B-14
000034:    5153           00001        LR13              DEC      1          B-14
000035:    5154           00000        LR14              DEC      0          B-14
000036:    5155           00001        LR15              DEC      1          B-14
000037:    5156           00000        LR16              DEC      0          B-14
000038:    5157           00001        LR17              DEC      1          B-14
000039:    5160           00000        LR18              DEC      0          B-14
000040:    5161           00001        LR19              DEC      1          B-14
000041:    5162           00000        LR20              DEC      0          B-14
000042:
000043:                                                                                                 #  For each of the 21 display digits, which pair of segments does it belong to?
000044:
000045:    5163           00000        SEG_0             DEC      00         B-14
000046:    5164           00000        SEG_1             DEC      00         B-14
000047:    5165           00001        SEG_2             DEC      01         B-14
000048:    5166           00001        SEG_3             DEC      01         B-14
000049:    5167           00002        SEG_4             DEC      02         B-14
000050:    5170           00002        SEG_5             DEC      02         B-14
000051:    5171           00003        SEG_6             DEC      03         B-14
000052:    5172           00004        SEG_7             DEC      04         B-14
000053:    5173           00004        SEG_8             DEC      04         B-14
000054:    5174           00005        SEG_9             DEC      05         B-14
000055:    5175           00005        SEG_10            DEC      05         B-14
000056:    5176           00006        SEG_11            DEC      06         B-14
000057:    5177           00006        SEG_12            DEC      06         B-14
000058:    5200           00007        SEG_13            DEC      07         B-14
000059:    5201           00007        SEG_14            DEC      07         B-14
000060:    5202           00010        SEG_15            DEC      08         B-14
000061:    5203           00010        SEG_16            DEC      08         B-14
000062:    5204           00011        SEG_17            DEC      09         B-14
000063:    5205           00011        SEG_18            DEC      09         B-14
000064:    5206           00012        SEG_19            DEC      10         B-14
000065:    5207           00012        SEG_20            DEC      10         B-14
000066:
000067:
000068:                                                                                                 #  Lookup bits 10-14 to select the segement pair in Channel 10 WRITE
000069:
000070:
000071:    5210           54000        SEGCODE           OCT      54000
000072:    5211           50000        VERBLR            OCT      50000
000073:    5212           44000        NOUNLR            OCT      44000
000074:    5213           40000        TOP1              OCT      40000
000075:    5214           34000        TOP23             OCT      34000
000076:    5215           30000        TOP45             OCT      30000
000077:    5216           24000        MID12             OCT      24000
000078:    5217           20000        MID34             OCT      20000
000079:    5220           14000        MID5BOT1          OCT      14000
000080:    5221           10000        BOT23             OCT      10000
000081:    5222           04000        BOT45             OCT      4000
000082:
000083:
000084:
000085:                                                                                                 #  Decimal table for easy loading into A
000086:
000087:    5223           00000        DIGITS            DEC      0          B-14
000088:    5224           00001        DEC1              DEC      1          B-14
000089:    5225           00002        DEC2              DEC      2          B-14
000090:    5226           00003        DEC3              DEC      3          B-14
000091:    5227           00004        DEC4              DEC      4          B-14
000092:    5230           00005        DEC5              DEC      5          B-14
000093:    5231           00006        DEC6              DEC      6          B-14
000094:    5232           00007        DEC7              DEC      7          B-14
000095:    5233           00010        DEC8              DEC      8          B-14
000096:    5234           00011        DEC9              DEC      9          B-14
000097:    5235           00012        DEC10             DEC      10         B-14
000098:    5236           00013        DEC11             DEC      11         B-14
000099:    5237           00014        DEC12             DEC      12         B-14
000100:    5240           00015        DEC13             DEC      13         B-14
000101:    5241           00016        DEC14             DEC      14         B-14
000102:    5242           00017        DEC15             DEC      15         B-14
000103:    5243           00020        DEC16             DEC      16         B-14
000104:    5244           00021        DEC17             DEC      17         B-14
000105:    5245           00022        DEC18             DEC      18         B-14
000106:    5246           00023        DEC19             DEC      19         B-14
000107:
000108:                                                                                                 #  Game state constants, re-using some of the above
000109:
000110:    5247     5223               STAINPUT          EQUALS   DIGITS
000111:    5247     5224               STAWAIT           EQUALS   DEC1
000112:    5247     5225               STAWIN            EQUALS   DEC2
000113:    5247     5226               STALOSE           EQUALS   DEC3
000114:    5247     5227               STAINIT           EQUALS   DEC4
000115:
000116:                                                                                                 #  For each grid row, which segment ID does it start at?
000117:
000118:    5247           00006        ROW_STRT          DEC      6          B-14
000119:    5250           00013        ROW_STRT2          DEC      11         B-14
000120:    5251           00020        ROW_STRT3          DEC      16         B-14
000121:
000122:                                                                                                 #  For each grid column, which segment ID does it start at?
000123:
000124:    5252           00006        COL_STRT          DEC      6          B-14
000125:    5253           00007        COL_STRT2          DEC      7          B-14
000126:    5254           00010        COL_STRT3          DEC      8          B-14
000127:    5255           00011        COL_STRT4          DEC      9          B-14
000128:    5256           00012        COL_STRT5          DEC      10         B-14
000129:
000130:                                                                                                 #  For each grid cell, which column does it belong to (0-5 ignored)
000131:
000132:    5257           00000        GRID_COL          DEC      0          B-14
000133:    5260           00000        GRID_CM5          DEC      0          B-14
000134:    5261           00000        GRID_CM4          DEC      0          B-14
000135:    5262           00000        GRID_CM3          DEC      0          B-14
000136:    5263           00000        GRID_CM2          DEC      0          B-14
000137:    5264           00000        GRID_CM1          DEC      0          B-14
000138:    5265           00000        GRID_C0           DEC      0          B-14
000139:    5266           00001        GRID_C1           DEC      1          B-14
000140:    5267           00002        GRID_C2           DEC      2          B-14
000141:    5270           00003        GRID_C3           DEC      3          B-14
000142:    5271           00004        GRID_C4           DEC      4          B-14
000143:    5272           00000        GRID_C5           DEC      0          B-14
000144:    5273           00001        GRID_C6           DEC      1          B-14
000145:    5274           00002        GRID_C7           DEC      2          B-14
000146:    5275           00003        GRID_C8           DEC      3          B-14
000147:    5276           00004        GRID_C9           DEC      4          B-14
000148:    5277           00000        GRID_C10          DEC      0          B-14
000149:    5300           00001        GRID_C11          DEC      1          B-14
000150:    5301           00002        GRID_C12          DEC      2          B-14
000151:    5302           00003        GRID_C13          DEC      3          B-14
000152:    5303           00004        GRID_C14          DEC      4          B-14
000153:
000154:                                                                                                 #  For each grid cell, which ro wdoes it belong to (0-5 ignored)
000155:
000156:    5304           00000        GRID_ROW          DEC      0          B-14
000157:    5305           00000        GRID_RM5          DEC      0          B-14
000158:    5306           00000        GRID_RM4          DEC      0          B-14
000159:    5307           00000        GRID_RM3          DEC      0          B-14
000160:    5310           00000        GRID_RM2          DEC      0          B-14
000161:    5311           00000        GRID_RM1          DEC      0          B-14
000162:    5312           00000        GRID_R0           DEC      0          B-14
000163:    5313           00000        GRID_R1           DEC      0          B-14
000164:    5314           00000        GRID_R2           DEC      0          B-14
000165:    5315           00000        GRID_R3           DEC      0          B-14
000166:    5316           00000        GRID_R4           DEC      0          B-14
000167:    5317           00001        GRID_R5           DEC      1          B-14
000168:    5320           00001        GRID_R6           DEC      1          B-14
000169:    5321           00001        GRID_R7           DEC      1          B-14
000170:    5322           00001        GRID_R8           DEC      1          B-14
000171:    5323           00001        GRID_R9           DEC      1          B-14
000172:    5324           00002        GRID_R10          DEC      2          B-14
000173:    5325           00002        GRID_R11          DEC      2          B-14
000174:    5326           00002        GRID_R12          DEC      2          B-14
000175:    5327           00002        GRID_R13          DEC      2          B-14
000176:    5330           00002        GRID_R14          DEC      2          B-14
000177:
000178:                                                                                                 #  Table of 128 'random' numbers between 0-9 that we can index into
000179:
000180:    5331           00005        RAND1             DEC      5          B-14
000181:    5332           00002        RAND2             DEC      2          B-14
000182:    5333           00010        RAND3             DEC      8          B-14
000183:    5334           00001        RAND4             DEC      1          B-14
000184:    5335           00007        RAND5             DEC      7          B-14
000185:    5336           00003        RAND6             DEC      3          B-14
000186:    5337           00000        RAND7             DEC      0          B-14
000187:    5340           00011        RAND8             DEC      9          B-14
000188:    5341           00006        RAND9             DEC      6          B-14
000189:    5342           00004        RAND10            DEC      4          B-14
000190:    5343           00001        RAND11            DEC      1          B-14
000191:    5344           00005        RAND12            DEC      5          B-14
000192:    5345           00003        RAND13            DEC      3          B-14
000193:    5346           00007        RAND14            DEC      7          B-14
000194:    5347           00010        RAND15            DEC      8          B-14
000195:    5350           00002        RAND16            DEC      2          B-14
000196:    5351           00006        RAND17            DEC      6          B-14
000197:    5352           00000        RAND18            DEC      0          B-14
000198:    5353           00004        RAND19            DEC      4          B-14
000199:    5354           00011        RAND20            DEC      9          B-14
000200:    5355           00007        RAND21            DEC      7          B-14
000201:    5356           00006        RAND22            DEC      6          B-14
000202:    5357           00002        RAND23            DEC      2          B-14
000203:    5360           00005        RAND24            DEC      5          B-14
000204:    5361           00001        RAND25            DEC      1          B-14
000205:    5362           00010        RAND26            DEC      8          B-14
000206:    5363           00003        RAND27            DEC      3          B-14
000207:    5364           00011        RAND28            DEC      9          B-14
000208:    5365           00000        RAND29            DEC      0          B-14
000209:    5366           00004        RAND30            DEC      4          B-14
000210:    5367           00006        RAND31            DEC      6          B-14
000211:    5370           00007        RAND32            DEC      7          B-14
000212:    5371           00005        RAND33            DEC      5          B-14
000213:    5372           00002        RAND34            DEC      2          B-14
000214:    5373           00011        RAND35            DEC      9          B-14
000215:    5374           00001        RAND36            DEC      1          B-14
000216:    5375           00004        RAND37            DEC      4          B-14
000217:    5376           00010        RAND38            DEC      8          B-14
000218:    5377           00003        RAND39            DEC      3          B-14
000219:    5400           00000        RAND40            DEC      0          B-14
000220:    5401           00002        RAND41            DEC      2          B-14
000221:    5402           00006        RAND42            DEC      6          B-14
000222:    5403           00007        RAND43            DEC      7          B-14
000223:    5404           00005        RAND44            DEC      5          B-14
000224:    5405           00001        RAND45            DEC      1          B-14
000225:    5406           00003        RAND46            DEC      3          B-14
000226:    5407           00011        RAND47            DEC      9          B-14
000227:    5410           00010        RAND48            DEC      8          B-14
000228:    5411           00004        RAND49            DEC      4          B-14
000229:    5412           00000        RAND50            DEC      0          B-14
000230:    5413           00005        RAND51            DEC      5          B-14
000231:    5414           00007        RAND52            DEC      7          B-14
000232:    5415           00006        RAND53            DEC      6          B-14
000233:    5416           00002        RAND54            DEC      2          B-14
000234:    5417           00010        RAND55            DEC      8          B-14
000235:    5420           00001        RAND56            DEC      1          B-14
000236:    5421           00003        RAND57            DEC      3          B-14
000237:    5422           00004        RAND58            DEC      4          B-14
000238:    5423           00011        RAND59            DEC      9          B-14
000239:    5424           00000        RAND60            DEC      0          B-14
000240:    5425           00007        RAND61            DEC      7          B-14
000241:    5426           00005        RAND62            DEC      5          B-14
000242:    5427           00002        RAND63            DEC      2          B-14
000243:    5430           00006        RAND64            DEC      6          B-14
000244:    5431           00001        RAND65            DEC      1          B-14
000245:    5432           00010        RAND66            DEC      8          B-14
000246:    5433           00004        RAND67            DEC      4          B-14
000247:    5434           00003        RAND68            DEC      3          B-14
000248:    5435           00011        RAND69            DEC      9          B-14
000249:    5436           00000        RAND70            DEC      0          B-14
000250:    5437           00006        RAND71            DEC      6          B-14
000251:    5440           00002        RAND72            DEC      2          B-14
000252:    5441           00005        RAND73            DEC      5          B-14
000253:    5442           00007        RAND74            DEC      7          B-14
000254:    5443           00010        RAND75            DEC      8          B-14
000255:    5444           00001        RAND76            DEC      1          B-14
000256:    5445           00004        RAND77            DEC      4          B-14
000257:    5446           00011        RAND78            DEC      9          B-14
000258:    5447           00003        RAND79            DEC      3          B-14
000259:    5450           00000        RAND80            DEC      0          B-14
000260:    5451           00005        RAND81            DEC      5          B-14
000261:    5452           00006        RAND82            DEC      6          B-14
000262:    5453           00007        RAND83            DEC      7          B-14
000263:    5454           00002        RAND84            DEC      2          B-14
000264:    5455           00001        RAND85            DEC      1          B-14
000265:    5456           00010        RAND86            DEC      8          B-14
000266:    5457           00011        RAND87            DEC      9          B-14
000267:    5460           00003        RAND88            DEC      3          B-14
000268:    5461           00004        RAND89            DEC      4          B-14
000269:    5462           00000        RAND90            DEC      0          B-14
000270:    5463           00007        RAND91            DEC      7          B-14
000271:    5464           00005        RAND92            DEC      5          B-14
000272:    5465           00006        RAND93            DEC      6          B-14
000273:    5466           00002        RAND94            DEC      2          B-14
000274:    5467           00010        RAND95            DEC      8          B-14
000275:    5470           00001        RAND96            DEC      1          B-14
000276:    5471           00003        RAND97            DEC      3          B-14
000277:    5472           00004        RAND98            DEC      4          B-14
000278:    5473           00011        RAND99            DEC      9          B-14
000279:    5474           00000        RAND100           DEC      0          B-14
000280:    5475           00006        RAND101           DEC      6          B-14
000281:    5476           00007        RAND102           DEC      7          B-14
000282:    5477           00005        RAND103           DEC      5          B-14
000283:    5500           00002        RAND104           DEC      2          B-14
000284:    5501           00001        RAND105           DEC      1          B-14
000285:    5502           00010        RAND106           DEC      8          B-14
000286:    5503           00003        RAND107           DEC      3          B-14
000287:    5504           00004        RAND108           DEC      4          B-14
000288:    5505           00011        RAND109           DEC      9          B-14
000289:    5506           00000        RAND110           DEC      0          B-14
000290:    5507           00007        RAND111           DEC      7          B-14
000291:    5510           00006        RAND112           DEC      6          B-14
000292:    5511           00005        RAND113           DEC      5          B-14
000293:    5512           00002        RAND114           DEC      2          B-14
000294:    5513           00010        RAND115           DEC      8          B-14
000295:    5514           00001        RAND116           DEC      1          B-14
000296:    5515           00003        RAND117           DEC      3          B-14
000297:    5516           00004        RAND118           DEC      4          B-14
000298:    5517           00011        RAND119           DEC      9          B-14
000299:    5520           00000        RAND120           DEC      0          B-14
000300:    5521           00006        RAND121           DEC      6          B-14
000301:    5522           00007        RAND122           DEC      7          B-14
000302:    5523           00005        RAND123           DEC      5          B-14
000303:    5524           00002        RAND124           DEC      2          B-14
000304:    5525           00010        RAND125           DEC      8          B-14
000305:    5526           00001        RAND126           DEC      1          B-14
000306:    5527           00003        RAND127           DEC      3          B-14
000307:    5530           00004        RAND128           DEC      4          B-14

End of include-file Tables.agc.  Parent file is Main.agc


