
Source Code
000001:
000002:    4376                        DO_TURNS
000003:
000004:    4376           30131                          CA       TURN_TEN                              #  Load number of tens in turns left
000005:    4377           00006                          EXTEND
000006:    4400           14414                          BZF      TENS_ZERO                             #  Tens is zero, just decrease ones
000007:
000008:    4401           30132                          CA       TURN_DIG                              #  Load number of ones in turn count
000009:    4402           00006                          EXTEND
000010:    4403           14407                          BZF      WRAP_TEN                              #  If zero, decrease tens
000011:
000012:    4404           00006                          EXTEND
000013:    4405           26132                          DIM      TURN_DIG                              #  Decrease ones
000014:
000015:    4406           14451                          TCF      DONE_TURNS                            #  We know tens > 0, skip the rest
000016:
000017:    4407                        WRAP_TEN
000018:
000019:    4407           00006                          EXTEND
000020:    4410           26131                          DIM      TURN_TEN                              #  Decrease number of tens
000021:
000022:    4411           35234                          CA       DEC9                                  #  Load 9 into A
000023:    4412           54132                          TS       TURN_DIG                              #  Store into turn ones
000024:
000025:    4413           14451                          TCF      DONE_TURNS                            #  We know we can't be out of turns, skip rest
000026:
000027:    4414                        TENS_ZERO
000028:
000029:    4414           00006                          EXTEND
000030:    4415           26132                          DIM      TURN_DIG                              #  Decrease number in ones
000031:
000032:    4416           30076                          CA       GM_STATE                              #  Get game state
000033:    4417           00006                          EXTEND
000034:    4420           14422                          BZF      NOT_WON                               #  Still playing
000035:
000036:    4421           14452                          TCF      IS_GM_OVR                             #  We won, don't check game over
000037:
000038:    4422                        NOT_WON
000039:    4422           30132                          CA       TURN_DIG                              #  Load ones into A
000040:    4423           00006                          EXTEND
000041:    4424           14426                          BZF      NONE_LEFT                             #  If ones is zero
000042:
000043:    4425           14451                          TCF      DONE_TURNS                            #  Ones > 0, not out of turns
000044:
000045:    4426                        NONE_LEFT
000046:
000047:    4426           35122                          CA       OPP_ERR                               #  Load bit pattern for operator error light
000048:    4427           00006                          EXTEND
000049:    4430           05011                          WOR      CH11                                  #  Turn bit on
000050:
000051:    4431           35226                          CA       STALOSE                               #  Load status id for lost condition
000052:    4432           54076                          TS       GM_STATE                              #  Store in game state var
000053:
000054:    4433           35100                          CAF      GM_TIME                               #  Get timer value to show game over
000055:    4434           54027                          TS       TIME4                                 #  Set interrupt to fire when timer (counts up) wraps to 0
000056:
000057:    4435           04104                          TC       RESETALL                              #  Set all grid items to empty (-1)
000058:
000059:    4436           30113                          CA       SIGNAL                                #  Copy correct answer to bottom row
000060:    4437           54151                          TS       NUM_10
000061:
000062:    4440           30114                          CA       SIGNAL1
000063:    4441           54152                          TS       NUM_11
000064:
000065:    4442           30115                          CA       SIGNAL2
000066:    4443           54153                          TS       NUM_12
000067:
000068:    4444           30116                          CA       SIGNAL3
000069:    4445           54154                          TS       NUM_13
000070:
000071:    4446           30117                          CA       SIGNAL4
000072:    4447           54155                          TS       NUM_14
000073:
000074:    4450           14452                          TCF      IS_GM_OVR                             #  Don't update guess history, who cares, you lost!
000075:
000076:    4451                        DONE_TURNS
000077:
000078:    4451           04542                          TC       DISP_HIST                             #  Update guess history
000079:
000080:    4452                        IS_GM_OVR
000081:
000082:    4452           04631                          TC       DISPALL                               #  Refresh DSKY
000083:
000084:    4453           14074                          TCF      MAINLOOP                              #  Return to main loop
000085:

End of include-file UpdateTurn.agc.  Parent file is Main.agc


